{
  "contractName": "Demo2Registry",
  "abi": [
    {
      "constant": true,
      "inputs": [],
      "name": "owner",
      "outputs": [
        {
          "name": "",
          "type": "address"
        }
      ],
      "payable": false,
      "stateMutability": "view",
      "type": "function"
    },
    {
      "constant": true,
      "inputs": [],
      "name": "assetsNumber",
      "outputs": [
        {
          "name": "",
          "type": "uint256"
        }
      ],
      "payable": false,
      "stateMutability": "view",
      "type": "function"
    },
    {
      "constant": true,
      "inputs": [
        {
          "name": "",
          "type": "uint256"
        }
      ],
      "name": "assets",
      "outputs": [
        {
          "name": "name",
          "type": "string"
        },
        {
          "name": "author",
          "type": "string"
        },
        {
          "name": "description",
          "type": "string"
        },
        {
          "name": "assetId",
          "type": "uint256"
        },
        {
          "name": "assetOwner",
          "type": "address"
        }
      ],
      "payable": false,
      "stateMutability": "view",
      "type": "function"
    },
    {
      "constant": false,
      "inputs": [
        {
          "name": "newOwner",
          "type": "address"
        }
      ],
      "name": "transferOwnership",
      "outputs": [],
      "payable": false,
      "stateMutability": "nonpayable",
      "type": "function"
    },
    {
      "inputs": [
        {
          "name": "_eventManager",
          "type": "address"
        }
      ],
      "payable": false,
      "stateMutability": "nonpayable",
      "type": "constructor"
    },
    {
      "anonymous": false,
      "inputs": [
        {
          "indexed": true,
          "name": "previousOwner",
          "type": "address"
        },
        {
          "indexed": true,
          "name": "newOwner",
          "type": "address"
        }
      ],
      "name": "OwnershipTransferred",
      "type": "event"
    },
    {
      "constant": false,
      "inputs": [
        {
          "name": "_name",
          "type": "string"
        },
        {
          "name": "_author",
          "type": "string"
        },
        {
          "name": "_description",
          "type": "string"
        }
      ],
      "name": "createAsset",
      "outputs": [],
      "payable": false,
      "stateMutability": "nonpayable",
      "type": "function"
    },
    {
      "constant": false,
      "inputs": [
        {
          "name": "_assetId",
          "type": "uint256"
        },
        {
          "name": "_name",
          "type": "string"
        },
        {
          "name": "_author",
          "type": "string"
        },
        {
          "name": "_description",
          "type": "string"
        }
      ],
      "name": "updateAsset",
      "outputs": [],
      "payable": false,
      "stateMutability": "nonpayable",
      "type": "function"
    }
  ],
  "bytecode": "0x608060405234801561001057600080fd5b50604051602080610d3d833981016040525160008054600160a060020a0319908116331790915560038054600160a060020a0390931692909116919091179055610cde8061005f6000396000f3006080604052600436106100775763ffffffff7c0100000000000000000000000000000000000000000000000000000000600035041663190b2d1b811461007c5780638da5cb5b14610158578063bf973c2614610189578063cf35bdd0146101b0578063de58d1561461032c578063f2fde38b14610401575b600080fd5b34801561008857600080fd5b5060408051602060046024803582810135601f810185900485028601850190965285855261015695833595369560449491939091019190819084018382808284375050604080516020601f89358b018035918201839004830284018301909452808352979a99988101979196509182019450925082915084018382808284375050604080516020601f89358b018035918201839004830284018301909452808352979a9998810197919650918201945092508291508401838280828437509497506104229650505050505050565b005b34801561016457600080fd5b5061016d6106c4565b60408051600160a060020a039092168252519081900360200190f35b34801561019557600080fd5b5061019e6106d3565b60408051918252519081900360200190f35b3480156101bc57600080fd5b506101c86004356106d9565b6040518080602001806020018060200186815260200185600160a060020a0316600160a060020a03168152602001848103845289818151815260200191508051906020019080838360005b8381101561022b578181015183820152602001610213565b50505050905090810190601f1680156102585780820380516001836020036101000a031916815260200191505b5084810383528851815288516020918201918a019080838360005b8381101561028b578181015183820152602001610273565b50505050905090810190601f1680156102b85780820380516001836020036101000a031916815260200191505b50848103825287518152875160209182019189019080838360005b838110156102eb5781810151838201526020016102d3565b50505050905090810190601f1680156103185780820380516001836020036101000a031916815260200191505b509850505050505050505060405180910390f35b34801561033857600080fd5b506040805160206004803580820135601f810184900484028501840190955284845261015694369492936024939284019190819084018382808284375050604080516020601f89358b018035918201839004830284018301909452808352979a99988101979196509182019450925082915084018382808284375050604080516020601f89358b018035918201839004830284018301909452808352979a9998810197919650918201945092508291508401838280828437509497506108bb9650505050505050565b34801561040d57600080fd5b50610156600160a060020a0360043516610b6d565b60008054600160a060020a0316331461043a57600080fd5b60008511801561044c57506002548511155b151561045757600080fd5b5060008481526001602090815260409091208451909161047b918391870190610c17565b5082516104919060018301906020860190610c17565b5081516104a79060028301906020850190610c17565b5060038054908201546004808401546040517ff16bdc6600000000000000000000000000000000000000000000000000000000815260648101849052600160a060020a039182166084820181905260a093820193845286546002600019600183811615610100029190910190921681900460a48501819052949097169663f16bdc6696899692870195918701949093929182916024810191604482019160c401908a9080156105975780601f1061056c57610100808354040283529160200191610597565b820191906000526020600020905b81548152906001019060200180831161057a57829003601f168201915b505084810383528854600260001961010060018416150201909116048082526020909101908990801561060b5780601f106105e05761010080835404028352916020019161060b565b820191906000526020600020905b8154815290600101906020018083116105ee57829003601f168201915b505084810382528754600260001961010060018416150201909116048082526020909101908890801561067f5780601f106106545761010080835404028352916020019161067f565b820191906000526020600020905b81548152906001019060200180831161066257829003601f168201915b505098505050505050505050600060405180830381600087803b1580156106a557600080fd5b505af11580156106b9573d6000803e3d6000fd5b505050505050505050565b600054600160a060020a031681565b60025481565b60016020818152600092835260409283902080548451600294821615610100026000190190911693909304601f810183900483028401830190945283835292839183018282801561076b5780601f106107405761010080835404028352916020019161076b565b820191906000526020600020905b81548152906001019060200180831161074e57829003601f168201915b505050505090806001018054600181600116156101000203166002900480601f0160208091040260200160405190810160405280929190818152602001828054600181600116156101000203166002900480156108095780601f106107de57610100808354040283529160200191610809565b820191906000526020600020905b8154815290600101906020018083116107ec57829003601f168201915b50505060028085018054604080516020601f600019610100600187161502019094169590950492830185900485028101850190915281815295969594509092509083018282801561089b5780601f106108705761010080835404028352916020019161089b565b820191906000526020600020905b81548152906001019060200180831161087e57829003601f168201915b505050506003830154600490930154919291600160a060020a0316905085565b600054600160a060020a031633146108d257600080fd5b6002546108e690600163ffffffff610c0116565b60028190556040805160a0810182528581526020808201869052818301859052606082018490523360808301526000938452600181529190922082518051919261093592849290910190610c17565b50602082810151805161094e9260018501920190610c17565b506040820151805161096a916002840191602090910190610c17565b5060608201516003828101919091556080909201516004918201805473ffffffffffffffffffffffffffffffffffffffff1916600160a060020a0392831617905591546002546040517f057241de00000000000000000000000000000000000000000000000000000000815260648101829052336084820181905260a0948201948552885160a48301528851939095169463057241de948994899489949093929182916024810191604482019160c4019060208b019080838360005b83811015610a3e578181015183820152602001610a26565b50505050905090810190601f168015610a6b5780820380516001836020036101000a031916815260200191505b5084810383528851815288516020918201918a019080838360005b83811015610a9e578181015183820152602001610a86565b50505050905090810190601f168015610acb5780820380516001836020036101000a031916815260200191505b50848103825287518152875160209182019189019080838360005b83811015610afe578181015183820152602001610ae6565b50505050905090810190601f168015610b2b5780820380516001836020036101000a031916815260200191505b5098505050505050505050600060405180830381600087803b158015610b5057600080fd5b505af1158015610b64573d6000803e3d6000fd5b50505050505050565b600054600160a060020a03163314610b8457600080fd5b600160a060020a0381161515610b9957600080fd5b60008054604051600160a060020a03808516939216917f8be0079c531659141344cd1fd0a4f28419497f9722a3daafe3b4186f6b6457e091a36000805473ffffffffffffffffffffffffffffffffffffffff1916600160a060020a0392909216919091179055565b600082820183811015610c1057fe5b9392505050565b828054600181600116156101000203166002900490600052602060002090601f016020900481019282601f10610c5857805160ff1916838001178555610c85565b82800160010185558215610c85579182015b82811115610c85578251825591602001919060010190610c6a565b50610c91929150610c95565b5090565b610caf91905b80821115610c915760008155600101610c9b565b905600a165627a7a72305820792fd5268520f3b3c11d3d5236341b9bc5cf0b9c3b7b57427b04f64f7fe502ea0029",
  "source": "pragma solidity ^0.4.22;\n\nimport \"./Ownable.sol\";\nimport \"./SafeMath.sol\";\nimport \"./Demo2Wallet.sol\";\nimport \"./Structs.sol\";\nimport \"./EventManager.sol\";\n\ncontract Demo2Registry is Ownable, Structs {\n\n    using SafeMath for uint256;\n\n    mapping (uint256 => Asset) public assets;\n    uint256 public assetsNumber;\n\n    EventManager private eventManager_;\n\n    constructor(EventManager _eventManager) public {\n        eventManager_ = _eventManager;\n    }\n\n    function createAsset(string _name, string _author, string _description) public onlyOwner {\n        assetsNumber = assetsNumber.add(1);\n        assets[assetsNumber] = Asset(_name, _author, _description, assetsNumber, msg.sender);\n        eventManager_.emitAssetCreated(_name, _author, _description, assetsNumber, msg.sender);\n    }\n\n    function updateAsset(uint256 _assetId, string _name, string _author, string _description) public onlyOwner {\n        require(_assetId > 0 && _assetId <= assetsNumber);\n        Asset storage asset = assets[_assetId];\n        asset.name = _name;\n        asset.author = _author;\n        asset.description = _description;\n        eventManager_.emitAssetUpdated(asset.name, asset.author, asset.description, asset.assetId, asset.assetOwner);\n    }\n    \n}\n",
  "sourcePath": "/home/jordi/ws/bloomen-registry-claim-prototype/ethereum/contracts/Demo2Registry.sol",
  "compiler": {
    "name": "solc",
    "version": "0.4.24+commit.e67f0147.Emscripten.clang"
  },
  "schemaVersion": "2.0.1",
  "updatedAt": "2019-01-09T13:49:51.671Z"
}