{
  "contractName": "Demo2Claim",
  "abi": [
    {
      "constant": true,
      "inputs": [],
      "name": "claimsNumber",
      "outputs": [
        {
          "name": "",
          "type": "uint256"
        }
      ],
      "payable": false,
      "stateMutability": "view",
      "type": "function"
    },
    {
      "constant": true,
      "inputs": [],
      "name": "owner",
      "outputs": [
        {
          "name": "",
          "type": "address"
        }
      ],
      "payable": false,
      "stateMutability": "view",
      "type": "function"
    },
    {
      "constant": true,
      "inputs": [
        {
          "name": "",
          "type": "uint256"
        }
      ],
      "name": "claims",
      "outputs": [
        {
          "name": "assetId",
          "type": "uint256"
        },
        {
          "name": "assetOwner",
          "type": "address"
        },
        {
          "name": "description",
          "type": "string"
        },
        {
          "name": "claimId",
          "type": "uint256"
        },
        {
          "name": "claimOwner",
          "type": "address"
        }
      ],
      "payable": false,
      "stateMutability": "view",
      "type": "function"
    },
    {
      "constant": false,
      "inputs": [
        {
          "name": "newOwner",
          "type": "address"
        }
      ],
      "name": "transferOwnership",
      "outputs": [],
      "payable": false,
      "stateMutability": "nonpayable",
      "type": "function"
    },
    {
      "inputs": [
        {
          "name": "_eventManager",
          "type": "address"
        }
      ],
      "payable": false,
      "stateMutability": "nonpayable",
      "type": "constructor"
    },
    {
      "anonymous": false,
      "inputs": [
        {
          "indexed": true,
          "name": "previousOwner",
          "type": "address"
        },
        {
          "indexed": true,
          "name": "newOwner",
          "type": "address"
        }
      ],
      "name": "OwnershipTransferred",
      "type": "event"
    },
    {
      "constant": false,
      "inputs": [
        {
          "name": "_assetId",
          "type": "uint256"
        },
        {
          "name": "_assetOwner",
          "type": "address"
        },
        {
          "name": "_description",
          "type": "string"
        }
      ],
      "name": "createClaim",
      "outputs": [],
      "payable": false,
      "stateMutability": "nonpayable",
      "type": "function"
    },
    {
      "constant": false,
      "inputs": [
        {
          "name": "_claimId",
          "type": "uint256"
        },
        {
          "name": "_assetId",
          "type": "uint256"
        },
        {
          "name": "_assetOwner",
          "type": "address"
        },
        {
          "name": "_description",
          "type": "string"
        }
      ],
      "name": "updateClaim",
      "outputs": [],
      "payable": false,
      "stateMutability": "nonpayable",
      "type": "function"
    }
  ],
  "bytecode": "0x608060405234801561001057600080fd5b50604051602080610a73833981016040525160008054600160a060020a0319908116331790915560038054600160a060020a0390931692909116919091179055610a148061005f6000396000f3006080604052600436106100775763ffffffff7c01000000000000000000000000000000000000000000000000000000006000350416635457efe2811461007c57806374c8cb65146100ea5780638da5cb5b14610111578063a888c2cd14610142578063f2fde38b14610212578063f6f6ce2d14610233575b600080fd5b34801561008857600080fd5b50604080516020601f6064356004818101359283018490048402850184019095528184526100e8948035946024803595600160a060020a0360443516953695608494930191819084018382808284375094975061029c9650505050505050565b005b3480156100f657600080fd5b506100ff61044c565b60408051918252519081900360200190f35b34801561011d57600080fd5b50610126610452565b60408051600160a060020a039092168252519081900360200190f35b34801561014e57600080fd5b5061015a600435610461565b6040518086815260200185600160a060020a0316600160a060020a031681526020018060200184815260200183600160a060020a0316600160a060020a03168152602001828103825285818151815260200191508051906020019080838360005b838110156101d35781810151838201526020016101bb565b50505050905090810190601f1680156102005780820380516001836020036101000a031916815260200191505b50965050505050505060405180910390f35b34801561021e57600080fd5b506100e8600160a060020a036004351661052a565b34801561023f57600080fd5b50604080516020600460443581810135601f81018490048402850184019095528484526100e89482359460248035600160a060020a0316953695946064949201919081908401838280828437509497506105be9650505050505050565b60008054600160a060020a031633146102b457600080fd5b600085116102c157600080fd5b506000848152600160208181526040909220858155908101805473ffffffffffffffffffffffffffffffffffffffff1916600160a060020a0386161790558251909161031491600284019185019061094d565b50600380548254600184810154938501546004808701546040517f8f483bd9000000000000000000000000000000000000000000000000000000008152918201858152600160a060020a0397881660248401819052606484018590529188166084840181905260a0604485019081526002808c0180546000199981161561010002999099019098160460a486018190529990981698638f483bd9989396959491939160c40190869080156104095780601f106103de57610100808354040283529160200191610409565b820191906000526020600020905b8154815290600101906020018083116103ec57829003601f168201915b50509650505050505050600060405180830381600087803b15801561042d57600080fd5b505af1158015610441573d6000803e3d6000fd5b505050505050505050565b60025481565b600054600160a060020a031681565b6001602081815260009283526040928390208054818401546002808401805488516101009882161598909802600019011691909104601f81018690048602870186019097528686529195600160a060020a0390911694929383018282801561050a5780601f106104df5761010080835404028352916020019161050a565b820191906000526020600020905b8154815290600101906020018083116104ed57829003601f168201915b505050506003830154600490930154919291600160a060020a0316905085565b600054600160a060020a0316331461054157600080fd5b600160a060020a038116151561055657600080fd5b60008054604051600160a060020a03808516939216917f8be0079c531659141344cd1fd0a4f28419497f9722a3daafe3b4186f6b6457e091a36000805473ffffffffffffffffffffffffffffffffffffffff1916600160a060020a0392909216919091179055565b600080548190600160a060020a031633146105d857600080fd5b6002546105ec90600163ffffffff61093716565b60028181556040805160a081018252888152600160a060020a0388811660208084019182528385018a8152606085018890523360808601526000978852600180835295909720845181559151948201805473ffffffffffffffffffffffffffffffffffffffff1916959093169490941790915593518051919493610676939085019291019061094d565b5060608201516003828101919091556080909201516004918201805473ffffffffffffffffffffffffffffffffffffffff1916600160a060020a0392831617905591546002546040517fe5491589000000000000000000000000000000000000000000000000000000008152928301898152888516602485015260648401829052336084850181905260a060448601908152895160a48701528951949096169563e5491589958c958c958c959094939092909160c490910190602087019080838360005b8381101561075257818101518382015260200161073a565b50505050905090810190601f16801561077f5780820380516001836020036101000a031916815260200191505b509650505050505050600060405180830381600087803b1580156107a257600080fd5b505af11580156107b6573d6000803e3d6000fd5b5050600354604080517ffad1e01d000000000000000000000000000000000000000000000000000000008152600160a060020a038981166004830152915191909216935063fad1e01d925060248083019260209291908290030181600087803b15801561082257600080fd5b505af1158015610836573d6000803e3d6000fd5b505050506040513d602081101561084c57600080fd5b50516002546040517f912b33f1000000000000000000000000000000000000000000000000000000008152600160a060020a0387811660248301526044820183905233606483018190526080600484019081528851608485015288519597508796509186169463912b33f19489948b94919392829160a40190602088019080838360005b838110156108e85781810151838201526020016108d0565b50505050905090810190601f1680156109155780820380516001836020036101000a031916815260200191505b5095505050505050600060405180830381600087803b15801561042d57600080fd5b60008282018381101561094657fe5b9392505050565b828054600181600116156101000203166002900490600052602060002090601f016020900481019282601f1061098e57805160ff19168380011785556109bb565b828001600101855582156109bb579182015b828111156109bb5782518255916020019190600101906109a0565b506109c79291506109cb565b5090565b6109e591905b808211156109c757600081556001016109d1565b905600a165627a7a7230582089ae0d2f60d3c8256bb36206938d4d531bbebf3bd1e5f8c5908b1d403959f3980029",
  "source": "pragma solidity ^0.4.22;\n\nimport \"./Ownable.sol\";\nimport \"./SafeMath.sol\";\nimport \"./Demo2Task.sol\";\nimport \"./Structs.sol\";\nimport \"./Demo2Wallet.sol\";\n\ncontract Demo2Claim is Ownable, Structs {\n\n    using SafeMath for uint256;\n\n    mapping (uint256 => Claim) public claims;\n    uint256 public claimsNumber;\n\n    Demo2Wallet private eventManager_;\n\n    constructor(Demo2Wallet _eventManager) public {\n        eventManager_ = _eventManager;\n    }\n\n    function createClaim(uint256 _assetId, address _assetOwner, string _description) public onlyOwner {\n        claimsNumber = claimsNumber.add(1);\n        claims[claimsNumber] = Claim(_assetId, _assetOwner, _description, claimsNumber, msg.sender);\n        eventManager_.emitClaimCreated(_assetId, _assetOwner, _description, claimsNumber, msg.sender);\n        address taskAddress = eventManager_.getTaskAddress(_assetOwner);\n        Demo2Task taskContract = Demo2Task(taskAddress);\n        taskContract.createTask(_description, _assetOwner, claimsNumber, msg.sender);\n    }\n\n    function updateClaim(uint256 _claimId, uint256 _assetId, address _assetOwner, string _description) public onlyOwner {\n        require(_claimId > 0);\n        Claim storage claim = claims[_claimId];\n        claim.assetId = _assetId;\n        claim.assetOwner = _assetOwner;\n        claim.description = _description;\n        eventManager_.emitClaimUpdated(claim.assetId, claim.assetOwner, claim.description, claim.claimId, claim.claimOwner);\n    }\n\n}\n",
  "sourcePath": "/home/jordi/ws/bloomen-registry-claim-prototype/ethereum/contracts/Demo2Claim.sol",
  "compiler": {
    "name": "solc",
    "version": "0.4.24+commit.e67f0147.Emscripten.clang"
  },
  "schemaVersion": "2.0.1",
  "updatedAt": "2019-01-09T13:49:51.670Z"
}