{
  "contractName": "Demo2Task",
  "abi": [
    {
      "constant": true,
      "inputs": [
        {
          "name": "",
          "type": "uint256"
        }
      ],
      "name": "tasks",
      "outputs": [
        {
          "name": "description",
          "type": "string"
        },
        {
          "name": "to",
          "type": "address"
        },
        {
          "name": "taskId",
          "type": "uint256"
        },
        {
          "name": "claimId",
          "type": "uint256"
        },
        {
          "name": "claimOwner",
          "type": "address"
        },
        {
          "name": "from",
          "type": "address"
        }
      ],
      "payable": false,
      "stateMutability": "view",
      "type": "function"
    },
    {
      "constant": true,
      "inputs": [],
      "name": "owner",
      "outputs": [
        {
          "name": "",
          "type": "address"
        }
      ],
      "payable": false,
      "stateMutability": "view",
      "type": "function"
    },
    {
      "constant": true,
      "inputs": [],
      "name": "tasksNumber",
      "outputs": [
        {
          "name": "",
          "type": "uint256"
        }
      ],
      "payable": false,
      "stateMutability": "view",
      "type": "function"
    },
    {
      "constant": false,
      "inputs": [
        {
          "name": "newOwner",
          "type": "address"
        }
      ],
      "name": "transferOwnership",
      "outputs": [],
      "payable": false,
      "stateMutability": "nonpayable",
      "type": "function"
    },
    {
      "inputs": [
        {
          "name": "_eventManager",
          "type": "address"
        }
      ],
      "payable": false,
      "stateMutability": "nonpayable",
      "type": "constructor"
    },
    {
      "anonymous": false,
      "inputs": [
        {
          "indexed": true,
          "name": "previousOwner",
          "type": "address"
        },
        {
          "indexed": true,
          "name": "newOwner",
          "type": "address"
        }
      ],
      "name": "OwnershipTransferred",
      "type": "event"
    },
    {
      "constant": true,
      "inputs": [
        {
          "name": "_index",
          "type": "uint256"
        }
      ],
      "name": "getHistories",
      "outputs": [
        {
          "name": "",
          "type": "string[]"
        }
      ],
      "payable": false,
      "stateMutability": "view",
      "type": "function"
    },
    {
      "constant": false,
      "inputs": [
        {
          "name": "_description",
          "type": "string"
        },
        {
          "name": "_to",
          "type": "address"
        },
        {
          "name": "_claimId",
          "type": "uint256"
        },
        {
          "name": "_claimOwner",
          "type": "address"
        }
      ],
      "name": "createTask",
      "outputs": [],
      "payable": false,
      "stateMutability": "nonpayable",
      "type": "function"
    },
    {
      "constant": false,
      "inputs": [
        {
          "name": "_taskId",
          "type": "uint256"
        },
        {
          "name": "_description",
          "type": "string"
        },
        {
          "name": "_to",
          "type": "address"
        }
      ],
      "name": "updateTask",
      "outputs": [],
      "payable": false,
      "stateMutability": "nonpayable",
      "type": "function"
    }
  ],
  "bytecode": "0x608060405234801561001057600080fd5b50604051602080610da5833981018060405261002f9190810190610078565b6000805433600160a060020a031991821617825560048054909116600160a060020a0393909316929092179091556003556100bb565b600061007182516100aa565b9392505050565b60006020828403121561008a57600080fd5b60006100968484610065565b949350505050565b600160a060020a031690565b60006100b58261009e565b92915050565b610cdb806100ca6000396000f3006080604052600436106100825763ffffffff7c010000000000000000000000000000000000000000000000000000000060003504166324ca448b81146100875780635931b169146100a95780638d977672146100df5780638da5cb5b14610111578063912b33f11461013357806399a235a414610153578063f2fde38b14610175575b600080fd5b34801561009357600080fd5b506100a76100a23660046109af565b610195565b005b3480156100b557600080fd5b506100c96100c4366004610991565b6102e5565b6040516100d69190610b5b565b60405180910390f35b3480156100eb57600080fd5b506100ff6100fa366004610991565b6103d0565b6040516100d696959493929190610b6c565b34801561011d57600080fd5b5061012661049a565b6040516100d69190610b47565b34801561013f57600080fd5b506100a761014e366004610919565b6104a9565b34801561015f57600080fd5b50610168610679565b6040516100d69190610bdc565b34801561018157600080fd5b506100a76101903660046108f3565b61067f565b60008054600160a060020a031633146101ad57600080fd5b600084116101ba57600080fd5b506000838152600160209081526040909120835190916101de918391860190610729565b506001818101805473ffffffffffffffffffffffffffffffffffffffff1916600160a060020a038516179055600085815260026020908152604082208054938401808255908352918190208651929361023c93910191870190610729565b5050600480546001830154600284015460038501548585015460058701546040517f9db4aecc000000000000000000000000000000000000000000000000000000008152600160a060020a0396871697639db4aecc976102ad978b9790821696909590949082169391169101610bcb565b600060405180830381600087803b1580156102c757600080fd5b505af11580156102db573d6000803e3d6000fd5b5050505050505050565b606060026000838152602001908152602001600020805480602002602001604051908101604052809291908181526020016000905b828210156103c55760008481526020908190208301805460408051601f60026000196101006001871615020190941693909304928301859004850281018501909152818152928301828280156103b15780601f10610386576101008083540402835291602001916103b1565b820191906000526020600020905b81548152906001019060200180831161039457829003601f168201915b50505050508152602001906001019061031a565b505050509050919050565b60016020818152600092835260409283902080548451600294821615610100026000190190911693909304601f81018390048302840183019094528383529283918301828280156104625780601f1061043757610100808354040283529160200191610462565b820191906000526020600020905b81548152906001019060200180831161044557829003601f168201915b50505060018401546002850154600386015460048701546005909701549596600160a060020a03938416969295509093508216911686565b600054600160a060020a031681565b6003546104bd90600163ffffffff61071316565b60038190556040805160c081018252868152600160a060020a03808716602080840191909152828401859052606083018790529085166080830181905260a08301526000938452600181529190922082518051919261052192849290910190610729565b50602082810151600183018054600160a060020a0392831673ffffffffffffffffffffffffffffffffffffffff1991821617909155604080860151600286015560608601516003860155608086015160048601805491851691841691909117905560a0909501516005909401805494909216931692909217909155815160008082529181019092526105c3565b60608152602001906001900390816105ae5790505b5060026000600354815260200190815260200160002090805190602001906105ec9291906107a7565b506003546000908152600260209081526040822080546001810180835591845292829020875191936106249391019190880190610729565b5050600480546003546040517f8837b1e5000000000000000000000000000000000000000000000000000000008152600160a060020a0390921692638837b1e5926102ad928992899289918991829101610b6c565b60035481565b600054600160a060020a0316331461069657600080fd5b600160a060020a03811615156106ab57600080fd5b60008054604051600160a060020a03808516939216917f8be0079c531659141344cd1fd0a4f28419497f9722a3daafe3b4186f6b6457e091a36000805473ffffffffffffffffffffffffffffffffffffffff1916600160a060020a0392909216919091179055565b60008282018381101561072257fe5b9392505050565b828054600181600116156101000203166002900490600052602060002090601f016020900481019282601f1061076a57805160ff1916838001178555610797565b82800160010185558215610797579182015b8281111561079757825182559160200191906001019061077c565b506107a3929150610800565b5090565b8280548282559060005260206000209081019282156107f4579160200282015b828111156107f457825180516107e4918491602090910190610729565b50916020019190600101906107c7565b506107a392915061081d565b61081a91905b808211156107a35760008155600101610806565b90565b61081a91905b808211156107a35760006108378282610840565b50600101610823565b50805460018160011615610100020316600290046000825580601f106108665750610884565b601f0160209004906000526020600020908101906108849190610800565b50565b60006107228235610c4f565b6000601f820183136108a457600080fd5b81356108b76108b282610c11565b610bea565b915080825260208301602083018583830111156108d357600080fd5b6108de838284610c5b565b50505092915050565b6000610722823561081a565b60006020828403121561090557600080fd5b60006109118484610887565b949350505050565b6000806000806080858703121561092f57600080fd5b843567ffffffffffffffff81111561094657600080fd5b61095287828801610893565b945050602061096387828801610887565b9350506040610974878288016108e7565b925050606061098587828801610887565b91505092959194509250565b6000602082840312156109a357600080fd5b600061091184846108e7565b6000806000606084860312156109c457600080fd5b60006109d086866108e7565b935050602084013567ffffffffffffffff8111156109ed57600080fd5b6109f986828701610893565b9250506040610a0a86828701610887565b9150509250925092565b610a1d81610c4f565b82525050565b6000610a2e82610c4b565b80845260208401935083602082028501610a4785610c39565b60005b84811015610a7e578383038852610a62838351610a8a565b9250610a6d82610c39565b602098909801979150600101610a4a565b50909695505050505050565b6000610a9582610c4b565b808452610aa9816020860160208601610c67565b610ab281610c97565b9093016020019392505050565b600081546001811660008114610adc5760018114610afa57610b36565b60028204607f16855260ff1982166020860152604085019250610b36565b60028204808652602086019550610b1085610c3f565b60005b82811015610b2f57815488820152600190910190602001610b13565b8701945050505b505092915050565b610a1d8161081a565b60208101610b558284610a14565b92915050565b602080825281016107228184610a23565b60c08082528101610b7d8189610a8a565b9050610b8c6020830188610a14565b610b996040830187610b3e565b610ba66060830186610b3e565b610bb36080830185610a14565b610bc060a0830184610a14565b979650505050505050565b60c08082528101610b7d8189610abf565b60208101610b558284610b3e565b60405181810167ffffffffffffffff81118282101715610c0957600080fd5b604052919050565b600067ffffffffffffffff821115610c2857600080fd5b506020601f91909101601f19160190565b60200190565b60009081526020902090565b5190565b600160a060020a031690565b82818337506000910152565b60005b83811015610c82578181015183820152602001610c6a565b83811115610c91576000848401525b50505050565b601f01601f1916905600a265627a7a72305820361a5cbb2a3185c5284a0ff80a22861509d5d2590a57ea7836ec547a1ea388ae6c6578706572696d656e74616cf50037",
  "source": "pragma solidity ^0.4.24;\npragma experimental ABIEncoderV2;\n\nimport \"./Ownable.sol\";\nimport \"./SafeMath.sol\";\nimport \"./Strings.sol\";\nimport \"./Demo2Claim.sol\";\nimport \"./Structs.sol\";\nimport \"./EventManager.sol\";\n\ncontract Demo2Task is Ownable, Structs {\n    \n    using SafeMath for uint256;\n    using Strings for *;\n\n    mapping (uint256 => Task) public tasks;\n    mapping (uint256 => string[]) private histories_;\n    uint256 public tasksNumber;\n\n    EventManager private eventManager_;\n\n    constructor(EventManager _eventManager) public {\n        eventManager_ = _eventManager;\n        tasksNumber = 0;\n    }\n\n    function getHistories(uint256 _index) public view returns(string[]) {\n        return histories_[_index];\n    }\n\n    function createTask(string _description, address _to, uint256 _claimId, address _claimOwner) public {\n        tasksNumber = tasksNumber.add(1);\n        tasks[tasksNumber] = Task(_description, _to, tasksNumber, _claimId, _claimOwner, _claimOwner);\n        histories_[tasksNumber] = new string[](0);\n        histories_[tasksNumber].push(_description);\n        eventManager_.emitTaskCreated(_description, _to, tasksNumber, _claimId, _claimOwner, _claimOwner);\n    }\n\n    function updateTask(uint256 _taskId, string _description, address _to) public onlyOwner {\n        require(_taskId > 0);\n        Task storage task = tasks[_taskId];\n        task.description = _description;\n        task.to = _to; \n        histories_[_taskId].push(_description);\n        eventManager_.emitTaskUpdated(task.description, task.to, task.taskId, task.claimId, task.claimOwner, task.from);\n    }\n\n}\n",
  "sourcePath": "/home/jordi/ws/bloomen-registry-claim-prototype/ethereum/contracts/Demo2Task.sol",
  "compiler": {
    "name": "solc",
    "version": "0.4.24+commit.e67f0147.Emscripten.clang"
  },
  "schemaVersion": "2.0.1",
  "updatedAt": "2019-01-09T13:49:51.671Z"
}