{
  "contractName": "Demo2Wallet",
  "abi": [
    {
      "constant": false,
      "inputs": [
        {
          "name": "_name",
          "type": "string"
        },
        {
          "name": "_author",
          "type": "string"
        },
        {
          "name": "_description",
          "type": "string"
        },
        {
          "name": "_assetId",
          "type": "uint256"
        },
        {
          "name": "_assetOwner",
          "type": "address"
        }
      ],
      "name": "emitAssetCreated",
      "outputs": [],
      "payable": false,
      "stateMutability": "nonpayable",
      "type": "function"
    },
    {
      "constant": false,
      "inputs": [
        {
          "name": "_userAddresses",
          "type": "address[]"
        }
      ],
      "name": "emitAddressAdded",
      "outputs": [],
      "payable": false,
      "stateMutability": "nonpayable",
      "type": "function"
    },
    {
      "constant": false,
      "inputs": [
        {
          "name": "_description",
          "type": "string"
        },
        {
          "name": "_to",
          "type": "address"
        },
        {
          "name": "_taskId",
          "type": "uint256"
        },
        {
          "name": "_claimId",
          "type": "uint256"
        },
        {
          "name": "_claimOwner",
          "type": "address"
        },
        {
          "name": "_from",
          "type": "address"
        }
      ],
      "name": "emitTaskCreated",
      "outputs": [],
      "payable": false,
      "stateMutability": "nonpayable",
      "type": "function"
    },
    {
      "constant": false,
      "inputs": [
        {
          "name": "_assetId",
          "type": "uint256"
        },
        {
          "name": "_assetOwner",
          "type": "address"
        },
        {
          "name": "_description",
          "type": "string"
        },
        {
          "name": "_claimId",
          "type": "uint256"
        },
        {
          "name": "_claimOwner",
          "type": "address"
        }
      ],
      "name": "emitClaimUpdated",
      "outputs": [],
      "payable": false,
      "stateMutability": "nonpayable",
      "type": "function"
    },
    {
      "constant": false,
      "inputs": [
        {
          "name": "_description",
          "type": "string"
        },
        {
          "name": "_to",
          "type": "address"
        },
        {
          "name": "_taskId",
          "type": "uint256"
        },
        {
          "name": "_claimId",
          "type": "uint256"
        },
        {
          "name": "_claimOwner",
          "type": "address"
        },
        {
          "name": "_from",
          "type": "address"
        }
      ],
      "name": "emitTaskUpdated",
      "outputs": [],
      "payable": false,
      "stateMutability": "nonpayable",
      "type": "function"
    },
    {
      "constant": false,
      "inputs": [
        {
          "name": "_assetId",
          "type": "uint256"
        },
        {
          "name": "_assetOwner",
          "type": "address"
        },
        {
          "name": "_description",
          "type": "string"
        },
        {
          "name": "_claimId",
          "type": "uint256"
        },
        {
          "name": "_claimOwner",
          "type": "address"
        }
      ],
      "name": "emitClaimCreated",
      "outputs": [],
      "payable": false,
      "stateMutability": "nonpayable",
      "type": "function"
    },
    {
      "constant": false,
      "inputs": [
        {
          "name": "_name",
          "type": "string"
        },
        {
          "name": "_author",
          "type": "string"
        },
        {
          "name": "_description",
          "type": "string"
        },
        {
          "name": "_assetId",
          "type": "uint256"
        },
        {
          "name": "_assetOwner",
          "type": "address"
        }
      ],
      "name": "emitAssetUpdated",
      "outputs": [],
      "payable": false,
      "stateMutability": "nonpayable",
      "type": "function"
    },
    {
      "anonymous": false,
      "inputs": [
        {
          "indexed": false,
          "name": "userAddresses",
          "type": "address[]"
        }
      ],
      "name": "AddressAdded",
      "type": "event"
    },
    {
      "anonymous": false,
      "inputs": [
        {
          "indexed": false,
          "name": "name",
          "type": "string"
        },
        {
          "indexed": false,
          "name": "author",
          "type": "string"
        },
        {
          "indexed": false,
          "name": "description",
          "type": "string"
        },
        {
          "indexed": false,
          "name": "assetId",
          "type": "uint256"
        },
        {
          "indexed": false,
          "name": "assetOwner",
          "type": "address"
        }
      ],
      "name": "AssetCreated",
      "type": "event"
    },
    {
      "anonymous": false,
      "inputs": [
        {
          "indexed": false,
          "name": "name",
          "type": "string"
        },
        {
          "indexed": false,
          "name": "author",
          "type": "string"
        },
        {
          "indexed": false,
          "name": "description",
          "type": "string"
        },
        {
          "indexed": false,
          "name": "assetId",
          "type": "uint256"
        },
        {
          "indexed": false,
          "name": "assetOwner",
          "type": "address"
        }
      ],
      "name": "AssetUpdated",
      "type": "event"
    },
    {
      "anonymous": false,
      "inputs": [
        {
          "indexed": false,
          "name": "assetId",
          "type": "uint256"
        },
        {
          "indexed": false,
          "name": "assetOwner",
          "type": "address"
        },
        {
          "indexed": false,
          "name": "description",
          "type": "string"
        },
        {
          "indexed": false,
          "name": "claimId",
          "type": "uint256"
        },
        {
          "indexed": false,
          "name": "claimOwner",
          "type": "address"
        }
      ],
      "name": "ClaimCreated",
      "type": "event"
    },
    {
      "anonymous": false,
      "inputs": [
        {
          "indexed": false,
          "name": "assetId",
          "type": "uint256"
        },
        {
          "indexed": false,
          "name": "assetOwner",
          "type": "address"
        },
        {
          "indexed": false,
          "name": "description",
          "type": "string"
        },
        {
          "indexed": false,
          "name": "claimId",
          "type": "uint256"
        },
        {
          "indexed": false,
          "name": "claimOwner",
          "type": "address"
        }
      ],
      "name": "ClaimUpdated",
      "type": "event"
    },
    {
      "anonymous": false,
      "inputs": [
        {
          "indexed": false,
          "name": "description",
          "type": "string"
        },
        {
          "indexed": false,
          "name": "to",
          "type": "address"
        },
        {
          "indexed": false,
          "name": "taskId",
          "type": "uint256"
        },
        {
          "indexed": false,
          "name": "claimId",
          "type": "uint256"
        },
        {
          "indexed": false,
          "name": "claimOwner",
          "type": "address"
        },
        {
          "indexed": false,
          "name": "from",
          "type": "address"
        }
      ],
      "name": "TaskCreated",
      "type": "event"
    },
    {
      "anonymous": false,
      "inputs": [
        {
          "indexed": false,
          "name": "description",
          "type": "string"
        },
        {
          "indexed": false,
          "name": "to",
          "type": "address"
        },
        {
          "indexed": false,
          "name": "taskId",
          "type": "uint256"
        },
        {
          "indexed": false,
          "name": "claimId",
          "type": "uint256"
        },
        {
          "indexed": false,
          "name": "claimOwner",
          "type": "address"
        },
        {
          "indexed": false,
          "name": "from",
          "type": "address"
        }
      ],
      "name": "TaskUpdated",
      "type": "event"
    },
    {
      "constant": true,
      "inputs": [],
      "name": "getAddress",
      "outputs": [
        {
          "name": "",
          "type": "address[]"
        }
      ],
      "payable": false,
      "stateMutability": "view",
      "type": "function"
    },
    {
      "constant": false,
      "inputs": [
        {
          "name": "_newAddress",
          "type": "address"
        }
      ],
      "name": "createAddress",
      "outputs": [],
      "payable": false,
      "stateMutability": "nonpayable",
      "type": "function"
    },
    {
      "constant": true,
      "inputs": [
        {
          "name": "_userAddress",
          "type": "address"
        }
      ],
      "name": "getClaimAddress",
      "outputs": [
        {
          "name": "",
          "type": "address"
        }
      ],
      "payable": false,
      "stateMutability": "view",
      "type": "function"
    },
    {
      "constant": true,
      "inputs": [
        {
          "name": "_userAddress",
          "type": "address"
        }
      ],
      "name": "getRegistryAddress",
      "outputs": [
        {
          "name": "",
          "type": "address"
        }
      ],
      "payable": false,
      "stateMutability": "view",
      "type": "function"
    },
    {
      "constant": true,
      "inputs": [
        {
          "name": "_userAddress",
          "type": "address"
        }
      ],
      "name": "getTaskAddress",
      "outputs": [
        {
          "name": "",
          "type": "address"
        }
      ],
      "payable": false,
      "stateMutability": "view",
      "type": "function"
    }
  ],
  "bytecode": "0x608060405234801561001057600080fd5b50613652806100206000396000f3006080604052600436106100a05763ffffffff60e060020a600035041663010436ae81146100a5578063057241de146100c857806335afc10e146101ae57806338cc4831146102035780638837b1e5146102685780638f483bd9146102e75780639db4aecc14610361578063a5302e36146103e0578063cce2763b1461041d578063e54915891461043e578063f16bdc66146104b8578063fad1e01d1461059e575b600080fd5b3480156100b157600080fd5b506100c6600160a060020a03600435166105bf565b005b3480156100d457600080fd5b506040805160206004803580820135601f81018490048402850184019095528484526100c694369492936024939284019190819084018382808284375050604080516020601f89358b018035918201839004830284018301909452808352979a99988101979196509182019450925082915084018382808284375050604080516020601f89358b018035918201839004830284018301909452808352979a9998810197919650918201945092508291508401838280828437509497505084359550505050602090910135600160a060020a03169050610928565b3480156101ba57600080fd5b50604080516020600480358082013583810280860185019096528085526100c695369593946024949385019291829185019084908082843750949750610ab89650505050505050565b34801561020f57600080fd5b50610218610b30565b60408051602080825283518183015283519192839290830191858101910280838360005b8381101561025457818101518382015260200161023c565b505050509050019250505060405180910390f35b34801561027457600080fd5b506040805160206004803580820135601f81018490048402850184019095528484526100c694369492936024939284019190819084018382808284375094975050600160a060020a038535811696506020860135956040810135955060608101358216945060800135169150610b929050565b3480156102f357600080fd5b50604080516020600460443581810135601f81018490048402850184019095528484526100c69482359460248035600160a060020a0316953695946064949201919081908401838280828437509497505084359550505050602090910135600160a060020a03169050610c91565b34801561036d57600080fd5b506040805160206004803580820135601f81018490048402850184019095528484526100c694369492936024939284019190819084018382808284375094975050600160a060020a038535811696506020860135956040810135955060608101358216945060800135169150610d759050565b3480156103ec57600080fd5b50610401600160a060020a0360043516610e2c565b60408051600160a060020a039092168252519081900360200190f35b34801561042957600080fd5b50610401600160a060020a0360043516610e8c565b34801561044a57600080fd5b50604080516020600460443581810135601f81018490048402850184019095528484526100c69482359460248035600160a060020a0316953695946064949201919081908401838280828437509497505084359550505050602090910135600160a060020a03169050610eef565b3480156104c457600080fd5b506040805160206004803580820135601f81018490048402850184019095528484526100c694369492936024939284019190819084018382808284375050604080516020601f89358b018035918201839004830284018301909452808352979a99988101979196509182019450925082915084018382808284375050604080516020601f89358b018035918201839004830284018301909452808352979a9998810197919650918201945092508291508401838280828437509497505084359550505050602090910135600160a060020a03169050610f8d565b3480156105aa57600080fd5b50610401600160a060020a0360043516611015565b60008060006105cc61107a565b600160a060020a03851615156105e157600080fd5b306105ea6110a1565b600160a060020a03909116815260405190819003602001906000f080158015610617573d6000803e3d6000fd5b509350306106236110b1565b600160a060020a03909116815260405190819003602001906000f080158015610650573d6000803e3d6000fd5b5092503061065c6110c1565b600160a060020a03909116815260405190819003602001906000f080158015610689573d6000803e3d6000fd5b50915083600160a060020a031663f2fde38b866040518263ffffffff1660e060020a0281526004018082600160a060020a0316600160a060020a03168152602001915050600060405180830381600087803b1580156106e757600080fd5b505af11580156106fb573d6000803e3d6000fd5b5050505082600160a060020a031663f2fde38b866040518263ffffffff1660e060020a0281526004018082600160a060020a0316600160a060020a03168152602001915050600060405180830381600087803b15801561075a57600080fd5b505af115801561076e573d6000803e3d6000fd5b5050505081600160a060020a031663f2fde38b866040518263ffffffff1660e060020a0281526004018082600160a060020a0316600160a060020a03168152602001915050600060405180830381600087803b1580156107cd57600080fd5b505af11580156107e1573d6000803e3d6000fd5b505060408051608081018252600160a060020a03808a1680835288821660208085019182528b84168587019081528a85166060870190815260008581528084528881208851815490891673ffffffffffffffffffffffffffffffffffffffff19918216178255955160018083018054928b16928916929092179091559351600282018054918a16918816919091179055915160039092018054929097169185169190911790955580548082018255948190527fb10e2d527612073b26eecdfd717e6a320cf44b4afac2b0732d9fcbe2b7fa0cf690940180549092169092179055815484518183028101830190955280855292965061092195509293509183018282801561091757602002820191906000526020600020905b8154600160a060020a031681526001909101906020018083116108f9575b5050505050610ab8565b5050505050565b7f8caac17cb6aff837a2e971abc4704adda1e4a380438d832aad7ed0bffda0f56585858585856040518080602001806020018060200186815260200185600160a060020a0316600160a060020a03168152602001848103845289818151815260200191508051906020019080838360005b838110156109b1578181015183820152602001610999565b50505050905090810190601f1680156109de5780820380516001836020036101000a031916815260200191505b5084810383528851815288516020918201918a019080838360005b83811015610a115781810151838201526020016109f9565b50505050905090810190601f168015610a3e5780820380516001836020036101000a031916815260200191505b50848103825287518152875160209182019189019080838360005b83811015610a71578181015183820152602001610a59565b50505050905090810190601f168015610a9e5780820380516001836020036101000a031916815260200191505b509850505050505050505060405180910390a15050505050565b7f8eb4b62a1798809c1cb1593bc979eb7708ee201600022292993f69de3397e5c7816040518080602001828103825283818151815260200191508051906020019060200280838360005b83811015610b1a578181015183820152602001610b02565b505050509050019250505060405180910390a150565b60606001805480602002602001604051908101604052809291908181526020018280548015610b8857602002820191906000526020600020905b8154600160a060020a03168152600190910190602001808311610b6a575b5050505050905090565b7fddd8f6b044a02919cb2984516a4ba92db084d3c3a7a8cb94dff4d5bfcfd1af94868686868686604051808060200187600160a060020a0316600160a060020a0316815260200186815260200185815260200184600160a060020a0316600160a060020a0316815260200183600160a060020a0316600160a060020a03168152602001828103825288818151815260200191508051906020019080838360005b83811015610c4a578181015183820152602001610c32565b50505050905090810190601f168015610c775780820380516001836020036101000a031916815260200191505b5097505050505050505060405180910390a1505050505050565b7fb751dee9374192e29921410d6da67a9ba207ae8ebb91aede65faeaa45488260a85858585856040518086815260200185600160a060020a0316600160a060020a031681526020018060200184815260200183600160a060020a0316600160a060020a03168152602001828103825285818151815260200191508051906020019080838360005b83811015610d30578181015183820152602001610d18565b50505050905090810190601f168015610d5d5780820380516001836020036101000a031916815260200191505b50965050505050505060405180910390a15050505050565b7fa0d836f564079342c26a5ce81c0eefcbe66b7d7756a00d2eac3459292bf60dc6868686868686604051808060200187600160a060020a0316600160a060020a0316815260200186815260200185815260200184600160a060020a0316600160a060020a0316815260200183600160a060020a0316600160a060020a031681526020018281038252888181518152602001915080519060200190808383600083811015610c4a578181015183820152602001610c32565b6000610e3661107a565b5050600160a060020a039081166000908152602081815260409182902082516080810184528154851681526001820154851692810183905260028201548516938101939093526003015490921660609091015290565b6000610e9661107a565b5050600160a060020a038082166000908152602081815260409182902082516080810184528154851681526001820154851692810192909252600281015484169282018390526003015490921660608301529050919050565b7f197d9b1594a2403e0d4b1491986a666c6d55a6ce0672093fb1d3833135ffb40285858585856040518086815260200185600160a060020a0316600160a060020a031681526020018060200184815260200183600160a060020a0316600160a060020a031681526020018281038252858181518152602001915080519060200190808383600083811015610d30578181015183820152602001610d18565b7f19bbb2845ab9de88110296b06cfdb97d64575e7510c8da2b45b4d971f1dc7dd185858585856040518080602001806020018060200186815260200185600160a060020a0316600160a060020a0316815260200184810384528981815181526020019150805190602001908083836000838110156109b1578181015183820152602001610999565b600061101f61107a565b5050600160a060020a0390811660009081526020818152604091829020825160808101845281548516815260018201548516928101929092526002810154841692820192909252600390910154909116606090910181905290565b60408051608081018252600080825260208201819052918101829052606081019190915290565b604051610d3d806110d283390190565b604051610a7380611e0f83390190565b604051610da580612882833901905600608060405234801561001057600080fd5b50604051602080610d3d833981016040525160008054600160a060020a0319908116331790915560038054600160a060020a0390931692909116919091179055610cde8061005f6000396000f3006080604052600436106100775763ffffffff7c0100000000000000000000000000000000000000000000000000000000600035041663190b2d1b811461007c5780638da5cb5b14610158578063bf973c2614610189578063cf35bdd0146101b0578063de58d1561461032c578063f2fde38b14610401575b600080fd5b34801561008857600080fd5b5060408051602060046024803582810135601f810185900485028601850190965285855261015695833595369560449491939091019190819084018382808284375050604080516020601f89358b018035918201839004830284018301909452808352979a99988101979196509182019450925082915084018382808284375050604080516020601f89358b018035918201839004830284018301909452808352979a9998810197919650918201945092508291508401838280828437509497506104229650505050505050565b005b34801561016457600080fd5b5061016d6106c4565b60408051600160a060020a039092168252519081900360200190f35b34801561019557600080fd5b5061019e6106d3565b60408051918252519081900360200190f35b3480156101bc57600080fd5b506101c86004356106d9565b6040518080602001806020018060200186815260200185600160a060020a0316600160a060020a03168152602001848103845289818151815260200191508051906020019080838360005b8381101561022b578181015183820152602001610213565b50505050905090810190601f1680156102585780820380516001836020036101000a031916815260200191505b5084810383528851815288516020918201918a019080838360005b8381101561028b578181015183820152602001610273565b50505050905090810190601f1680156102b85780820380516001836020036101000a031916815260200191505b50848103825287518152875160209182019189019080838360005b838110156102eb5781810151838201526020016102d3565b50505050905090810190601f1680156103185780820380516001836020036101000a031916815260200191505b509850505050505050505060405180910390f35b34801561033857600080fd5b506040805160206004803580820135601f810184900484028501840190955284845261015694369492936024939284019190819084018382808284375050604080516020601f89358b018035918201839004830284018301909452808352979a99988101979196509182019450925082915084018382808284375050604080516020601f89358b018035918201839004830284018301909452808352979a9998810197919650918201945092508291508401838280828437509497506108bb9650505050505050565b34801561040d57600080fd5b50610156600160a060020a0360043516610b6d565b60008054600160a060020a0316331461043a57600080fd5b60008511801561044c57506002548511155b151561045757600080fd5b5060008481526001602090815260409091208451909161047b918391870190610c17565b5082516104919060018301906020860190610c17565b5081516104a79060028301906020850190610c17565b5060038054908201546004808401546040517ff16bdc6600000000000000000000000000000000000000000000000000000000815260648101849052600160a060020a039182166084820181905260a093820193845286546002600019600183811615610100029190910190921681900460a48501819052949097169663f16bdc6696899692870195918701949093929182916024810191604482019160c401908a9080156105975780601f1061056c57610100808354040283529160200191610597565b820191906000526020600020905b81548152906001019060200180831161057a57829003601f168201915b505084810383528854600260001961010060018416150201909116048082526020909101908990801561060b5780601f106105e05761010080835404028352916020019161060b565b820191906000526020600020905b8154815290600101906020018083116105ee57829003601f168201915b505084810382528754600260001961010060018416150201909116048082526020909101908890801561067f5780601f106106545761010080835404028352916020019161067f565b820191906000526020600020905b81548152906001019060200180831161066257829003601f168201915b505098505050505050505050600060405180830381600087803b1580156106a557600080fd5b505af11580156106b9573d6000803e3d6000fd5b505050505050505050565b600054600160a060020a031681565b60025481565b60016020818152600092835260409283902080548451600294821615610100026000190190911693909304601f810183900483028401830190945283835292839183018282801561076b5780601f106107405761010080835404028352916020019161076b565b820191906000526020600020905b81548152906001019060200180831161074e57829003601f168201915b505050505090806001018054600181600116156101000203166002900480601f0160208091040260200160405190810160405280929190818152602001828054600181600116156101000203166002900480156108095780601f106107de57610100808354040283529160200191610809565b820191906000526020600020905b8154815290600101906020018083116107ec57829003601f168201915b50505060028085018054604080516020601f600019610100600187161502019094169590950492830185900485028101850190915281815295969594509092509083018282801561089b5780601f106108705761010080835404028352916020019161089b565b820191906000526020600020905b81548152906001019060200180831161087e57829003601f168201915b505050506003830154600490930154919291600160a060020a0316905085565b600054600160a060020a031633146108d257600080fd5b6002546108e690600163ffffffff610c0116565b60028190556040805160a0810182528581526020808201869052818301859052606082018490523360808301526000938452600181529190922082518051919261093592849290910190610c17565b50602082810151805161094e9260018501920190610c17565b506040820151805161096a916002840191602090910190610c17565b5060608201516003828101919091556080909201516004918201805473ffffffffffffffffffffffffffffffffffffffff1916600160a060020a0392831617905591546002546040517f057241de00000000000000000000000000000000000000000000000000000000815260648101829052336084820181905260a0948201948552885160a48301528851939095169463057241de948994899489949093929182916024810191604482019160c4019060208b019080838360005b83811015610a3e578181015183820152602001610a26565b50505050905090810190601f168015610a6b5780820380516001836020036101000a031916815260200191505b5084810383528851815288516020918201918a019080838360005b83811015610a9e578181015183820152602001610a86565b50505050905090810190601f168015610acb5780820380516001836020036101000a031916815260200191505b50848103825287518152875160209182019189019080838360005b83811015610afe578181015183820152602001610ae6565b50505050905090810190601f168015610b2b5780820380516001836020036101000a031916815260200191505b5098505050505050505050600060405180830381600087803b158015610b5057600080fd5b505af1158015610b64573d6000803e3d6000fd5b50505050505050565b600054600160a060020a03163314610b8457600080fd5b600160a060020a0381161515610b9957600080fd5b60008054604051600160a060020a03808516939216917f8be0079c531659141344cd1fd0a4f28419497f9722a3daafe3b4186f6b6457e091a36000805473ffffffffffffffffffffffffffffffffffffffff1916600160a060020a0392909216919091179055565b600082820183811015610c1057fe5b9392505050565b828054600181600116156101000203166002900490600052602060002090601f016020900481019282601f10610c5857805160ff1916838001178555610c85565b82800160010185558215610c85579182015b82811115610c85578251825591602001919060010190610c6a565b50610c91929150610c95565b5090565b610caf91905b80821115610c915760008155600101610c9b565b905600a165627a7a72305820792fd5268520f3b3c11d3d5236341b9bc5cf0b9c3b7b57427b04f64f7fe502ea0029608060405234801561001057600080fd5b50604051602080610a73833981016040525160008054600160a060020a0319908116331790915560038054600160a060020a0390931692909116919091179055610a148061005f6000396000f3006080604052600436106100775763ffffffff7c01000000000000000000000000000000000000000000000000000000006000350416635457efe2811461007c57806374c8cb65146100ea5780638da5cb5b14610111578063a888c2cd14610142578063f2fde38b14610212578063f6f6ce2d14610233575b600080fd5b34801561008857600080fd5b50604080516020601f6064356004818101359283018490048402850184019095528184526100e8948035946024803595600160a060020a0360443516953695608494930191819084018382808284375094975061029c9650505050505050565b005b3480156100f657600080fd5b506100ff61044c565b60408051918252519081900360200190f35b34801561011d57600080fd5b50610126610452565b60408051600160a060020a039092168252519081900360200190f35b34801561014e57600080fd5b5061015a600435610461565b6040518086815260200185600160a060020a0316600160a060020a031681526020018060200184815260200183600160a060020a0316600160a060020a03168152602001828103825285818151815260200191508051906020019080838360005b838110156101d35781810151838201526020016101bb565b50505050905090810190601f1680156102005780820380516001836020036101000a031916815260200191505b50965050505050505060405180910390f35b34801561021e57600080fd5b506100e8600160a060020a036004351661052a565b34801561023f57600080fd5b50604080516020600460443581810135601f81018490048402850184019095528484526100e89482359460248035600160a060020a0316953695946064949201919081908401838280828437509497506105be9650505050505050565b60008054600160a060020a031633146102b457600080fd5b600085116102c157600080fd5b506000848152600160208181526040909220858155908101805473ffffffffffffffffffffffffffffffffffffffff1916600160a060020a0386161790558251909161031491600284019185019061094d565b50600380548254600184810154938501546004808701546040517f8f483bd9000000000000000000000000000000000000000000000000000000008152918201858152600160a060020a0397881660248401819052606484018590529188166084840181905260a0604485019081526002808c0180546000199981161561010002999099019098160460a486018190529990981698638f483bd9989396959491939160c40190869080156104095780601f106103de57610100808354040283529160200191610409565b820191906000526020600020905b8154815290600101906020018083116103ec57829003601f168201915b50509650505050505050600060405180830381600087803b15801561042d57600080fd5b505af1158015610441573d6000803e3d6000fd5b505050505050505050565b60025481565b600054600160a060020a031681565b6001602081815260009283526040928390208054818401546002808401805488516101009882161598909802600019011691909104601f81018690048602870186019097528686529195600160a060020a0390911694929383018282801561050a5780601f106104df5761010080835404028352916020019161050a565b820191906000526020600020905b8154815290600101906020018083116104ed57829003601f168201915b505050506003830154600490930154919291600160a060020a0316905085565b600054600160a060020a0316331461054157600080fd5b600160a060020a038116151561055657600080fd5b60008054604051600160a060020a03808516939216917f8be0079c531659141344cd1fd0a4f28419497f9722a3daafe3b4186f6b6457e091a36000805473ffffffffffffffffffffffffffffffffffffffff1916600160a060020a0392909216919091179055565b600080548190600160a060020a031633146105d857600080fd5b6002546105ec90600163ffffffff61093716565b60028181556040805160a081018252888152600160a060020a0388811660208084019182528385018a8152606085018890523360808601526000978852600180835295909720845181559151948201805473ffffffffffffffffffffffffffffffffffffffff1916959093169490941790915593518051919493610676939085019291019061094d565b5060608201516003828101919091556080909201516004918201805473ffffffffffffffffffffffffffffffffffffffff1916600160a060020a0392831617905591546002546040517fe5491589000000000000000000000000000000000000000000000000000000008152928301898152888516602485015260648401829052336084850181905260a060448601908152895160a48701528951949096169563e5491589958c958c958c959094939092909160c490910190602087019080838360005b8381101561075257818101518382015260200161073a565b50505050905090810190601f16801561077f5780820380516001836020036101000a031916815260200191505b509650505050505050600060405180830381600087803b1580156107a257600080fd5b505af11580156107b6573d6000803e3d6000fd5b5050600354604080517ffad1e01d000000000000000000000000000000000000000000000000000000008152600160a060020a038981166004830152915191909216935063fad1e01d925060248083019260209291908290030181600087803b15801561082257600080fd5b505af1158015610836573d6000803e3d6000fd5b505050506040513d602081101561084c57600080fd5b50516002546040517f912b33f1000000000000000000000000000000000000000000000000000000008152600160a060020a0387811660248301526044820183905233606483018190526080600484019081528851608485015288519597508796509186169463912b33f19489948b94919392829160a40190602088019080838360005b838110156108e85781810151838201526020016108d0565b50505050905090810190601f1680156109155780820380516001836020036101000a031916815260200191505b5095505050505050600060405180830381600087803b15801561042d57600080fd5b60008282018381101561094657fe5b9392505050565b828054600181600116156101000203166002900490600052602060002090601f016020900481019282601f1061098e57805160ff19168380011785556109bb565b828001600101855582156109bb579182015b828111156109bb5782518255916020019190600101906109a0565b506109c79291506109cb565b5090565b6109e591905b808211156109c757600081556001016109d1565b905600a165627a7a7230582089ae0d2f60d3c8256bb36206938d4d531bbebf3bd1e5f8c5908b1d403959f3980029608060405234801561001057600080fd5b50604051602080610da5833981018060405261002f9190810190610078565b6000805433600160a060020a031991821617825560048054909116600160a060020a0393909316929092179091556003556100bb565b600061007182516100aa565b9392505050565b60006020828403121561008a57600080fd5b60006100968484610065565b949350505050565b600160a060020a031690565b60006100b58261009e565b92915050565b610cdb806100ca6000396000f3006080604052600436106100825763ffffffff7c010000000000000000000000000000000000000000000000000000000060003504166324ca448b81146100875780635931b169146100a95780638d977672146100df5780638da5cb5b14610111578063912b33f11461013357806399a235a414610153578063f2fde38b14610175575b600080fd5b34801561009357600080fd5b506100a76100a23660046109af565b610195565b005b3480156100b557600080fd5b506100c96100c4366004610991565b6102e5565b6040516100d69190610b5b565b60405180910390f35b3480156100eb57600080fd5b506100ff6100fa366004610991565b6103d0565b6040516100d696959493929190610b6c565b34801561011d57600080fd5b5061012661049a565b6040516100d69190610b47565b34801561013f57600080fd5b506100a761014e366004610919565b6104a9565b34801561015f57600080fd5b50610168610679565b6040516100d69190610bdc565b34801561018157600080fd5b506100a76101903660046108f3565b61067f565b60008054600160a060020a031633146101ad57600080fd5b600084116101ba57600080fd5b506000838152600160209081526040909120835190916101de918391860190610729565b506001818101805473ffffffffffffffffffffffffffffffffffffffff1916600160a060020a038516179055600085815260026020908152604082208054938401808255908352918190208651929361023c93910191870190610729565b5050600480546001830154600284015460038501548585015460058701546040517f9db4aecc000000000000000000000000000000000000000000000000000000008152600160a060020a0396871697639db4aecc976102ad978b9790821696909590949082169391169101610bcb565b600060405180830381600087803b1580156102c757600080fd5b505af11580156102db573d6000803e3d6000fd5b5050505050505050565b606060026000838152602001908152602001600020805480602002602001604051908101604052809291908181526020016000905b828210156103c55760008481526020908190208301805460408051601f60026000196101006001871615020190941693909304928301859004850281018501909152818152928301828280156103b15780601f10610386576101008083540402835291602001916103b1565b820191906000526020600020905b81548152906001019060200180831161039457829003601f168201915b50505050508152602001906001019061031a565b505050509050919050565b60016020818152600092835260409283902080548451600294821615610100026000190190911693909304601f81018390048302840183019094528383529283918301828280156104625780601f1061043757610100808354040283529160200191610462565b820191906000526020600020905b81548152906001019060200180831161044557829003601f168201915b50505060018401546002850154600386015460048701546005909701549596600160a060020a03938416969295509093508216911686565b600054600160a060020a031681565b6003546104bd90600163ffffffff61071316565b60038190556040805160c081018252868152600160a060020a03808716602080840191909152828401859052606083018790529085166080830181905260a08301526000938452600181529190922082518051919261052192849290910190610729565b50602082810151600183018054600160a060020a0392831673ffffffffffffffffffffffffffffffffffffffff1991821617909155604080860151600286015560608601516003860155608086015160048601805491851691841691909117905560a0909501516005909401805494909216931692909217909155815160008082529181019092526105c3565b60608152602001906001900390816105ae5790505b5060026000600354815260200190815260200160002090805190602001906105ec9291906107a7565b506003546000908152600260209081526040822080546001810180835591845292829020875191936106249391019190880190610729565b5050600480546003546040517f8837b1e5000000000000000000000000000000000000000000000000000000008152600160a060020a0390921692638837b1e5926102ad928992899289918991829101610b6c565b60035481565b600054600160a060020a0316331461069657600080fd5b600160a060020a03811615156106ab57600080fd5b60008054604051600160a060020a03808516939216917f8be0079c531659141344cd1fd0a4f28419497f9722a3daafe3b4186f6b6457e091a36000805473ffffffffffffffffffffffffffffffffffffffff1916600160a060020a0392909216919091179055565b60008282018381101561072257fe5b9392505050565b828054600181600116156101000203166002900490600052602060002090601f016020900481019282601f1061076a57805160ff1916838001178555610797565b82800160010185558215610797579182015b8281111561079757825182559160200191906001019061077c565b506107a3929150610800565b5090565b8280548282559060005260206000209081019282156107f4579160200282015b828111156107f457825180516107e4918491602090910190610729565b50916020019190600101906107c7565b506107a392915061081d565b61081a91905b808211156107a35760008155600101610806565b90565b61081a91905b808211156107a35760006108378282610840565b50600101610823565b50805460018160011615610100020316600290046000825580601f106108665750610884565b601f0160209004906000526020600020908101906108849190610800565b50565b60006107228235610c4f565b6000601f820183136108a457600080fd5b81356108b76108b282610c11565b610bea565b915080825260208301602083018583830111156108d357600080fd5b6108de838284610c5b565b50505092915050565b6000610722823561081a565b60006020828403121561090557600080fd5b60006109118484610887565b949350505050565b6000806000806080858703121561092f57600080fd5b843567ffffffffffffffff81111561094657600080fd5b61095287828801610893565b945050602061096387828801610887565b9350506040610974878288016108e7565b925050606061098587828801610887565b91505092959194509250565b6000602082840312156109a357600080fd5b600061091184846108e7565b6000806000606084860312156109c457600080fd5b60006109d086866108e7565b935050602084013567ffffffffffffffff8111156109ed57600080fd5b6109f986828701610893565b9250506040610a0a86828701610887565b9150509250925092565b610a1d81610c4f565b82525050565b6000610a2e82610c4b565b80845260208401935083602082028501610a4785610c39565b60005b84811015610a7e578383038852610a62838351610a8a565b9250610a6d82610c39565b602098909801979150600101610a4a565b50909695505050505050565b6000610a9582610c4b565b808452610aa9816020860160208601610c67565b610ab281610c97565b9093016020019392505050565b600081546001811660008114610adc5760018114610afa57610b36565b60028204607f16855260ff1982166020860152604085019250610b36565b60028204808652602086019550610b1085610c3f565b60005b82811015610b2f57815488820152600190910190602001610b13565b8701945050505b505092915050565b610a1d8161081a565b60208101610b558284610a14565b92915050565b602080825281016107228184610a23565b60c08082528101610b7d8189610a8a565b9050610b8c6020830188610a14565b610b996040830187610b3e565b610ba66060830186610b3e565b610bb36080830185610a14565b610bc060a0830184610a14565b979650505050505050565b60c08082528101610b7d8189610abf565b60208101610b558284610b3e565b60405181810167ffffffffffffffff81118282101715610c0957600080fd5b604052919050565b600067ffffffffffffffff821115610c2857600080fd5b506020601f91909101601f19160190565b60200190565b60009081526020902090565b5190565b600160a060020a031690565b82818337506000910152565b60005b83811015610c82578181015183820152602001610c6a565b83811115610c91576000848401525b50505050565b601f01601f1916905600a265627a7a72305820361a5cbb2a3185c5284a0ff80a22861509d5d2590a57ea7836ec547a1ea388ae6c6578706572696d656e74616cf50037a165627a7a72305820889fe44347c4f923a39704889301e1c600794e65bdd7c18cb401141b631253390029",
  "source": "pragma solidity ^0.4.22;\n\nimport \"./Demo2Claim.sol\";\nimport \"./Demo2Registry.sol\";\nimport \"./Demo2Task.sol\";\nimport \"./Structs.sol\";\nimport \"./EventManager.sol\";\n\ncontract Demo2Wallet is Structs, EventManager {\n\n    mapping (address => User) private usersMap_;\n    address[] private userAddresses_;\n\n    function getAddress() public view returns(address[]) {\n        return userAddresses_;\n    }\n\n    function createAddress(address _newAddress) public {\n        require(_newAddress != address(0));\n\n        Demo2Registry demo2Registry = new Demo2Registry(this);\n\n        Demo2Claim demo2Claim = new Demo2Claim(this);\n\n        Demo2Task demo2Task = new Demo2Task(this);\n\n        demo2Registry.transferOwnership(_newAddress);\n        demo2Claim.transferOwnership(_newAddress);\n        demo2Task.transferOwnership(_newAddress);\n\n        User memory user = User(_newAddress, address(demo2Claim), address(demo2Registry), address(demo2Task));\n        usersMap_[_newAddress] = user;\n        userAddresses_.push(_newAddress);\n        emitAddressAdded(userAddresses_);\n    }\n\n    function getClaimAddress(address _userAddress) public view returns(address) {\n        User memory user = usersMap_[_userAddress];\n        return user.claimContract;\n    }\n\n    function getRegistryAddress(address _userAddress) public view returns(address) {\n        User memory user = usersMap_[_userAddress];\n        return user.registryContract;\n    }\n\n    function getTaskAddress(address _userAddress) public view returns(address) {\n        User memory user = usersMap_[_userAddress];\n        return user.taskContract;\n    }\n\n}\n",
  "sourcePath": "/home/jordi/ws/bloomen-registry-claim-prototype/ethereum/contracts/Demo2Wallet.sol",
  "compiler": {
    "name": "solc",
    "version": "0.4.24+commit.e67f0147.Emscripten.clang"
  },
  "schemaVersion": "2.0.1",
  "updatedAt": "2019-01-09T13:50:26.766Z"
}