{
  "contractName": "EventManager",
  "abi": [
    {
      "anonymous": false,
      "inputs": [
        {
          "indexed": false,
          "name": "userAddresses",
          "type": "address[]"
        }
      ],
      "name": "AddressAdded",
      "type": "event"
    },
    {
      "anonymous": false,
      "inputs": [
        {
          "indexed": false,
          "name": "name",
          "type": "string"
        },
        {
          "indexed": false,
          "name": "author",
          "type": "string"
        },
        {
          "indexed": false,
          "name": "description",
          "type": "string"
        },
        {
          "indexed": false,
          "name": "assetId",
          "type": "uint256"
        },
        {
          "indexed": false,
          "name": "assetOwner",
          "type": "address"
        }
      ],
      "name": "AssetCreated",
      "type": "event"
    },
    {
      "anonymous": false,
      "inputs": [
        {
          "indexed": false,
          "name": "name",
          "type": "string"
        },
        {
          "indexed": false,
          "name": "author",
          "type": "string"
        },
        {
          "indexed": false,
          "name": "description",
          "type": "string"
        },
        {
          "indexed": false,
          "name": "assetId",
          "type": "uint256"
        },
        {
          "indexed": false,
          "name": "assetOwner",
          "type": "address"
        }
      ],
      "name": "AssetUpdated",
      "type": "event"
    },
    {
      "anonymous": false,
      "inputs": [
        {
          "indexed": false,
          "name": "assetId",
          "type": "uint256"
        },
        {
          "indexed": false,
          "name": "assetOwner",
          "type": "address"
        },
        {
          "indexed": false,
          "name": "description",
          "type": "string"
        },
        {
          "indexed": false,
          "name": "claimId",
          "type": "uint256"
        },
        {
          "indexed": false,
          "name": "claimOwner",
          "type": "address"
        }
      ],
      "name": "ClaimCreated",
      "type": "event"
    },
    {
      "anonymous": false,
      "inputs": [
        {
          "indexed": false,
          "name": "assetId",
          "type": "uint256"
        },
        {
          "indexed": false,
          "name": "assetOwner",
          "type": "address"
        },
        {
          "indexed": false,
          "name": "description",
          "type": "string"
        },
        {
          "indexed": false,
          "name": "claimId",
          "type": "uint256"
        },
        {
          "indexed": false,
          "name": "claimOwner",
          "type": "address"
        }
      ],
      "name": "ClaimUpdated",
      "type": "event"
    },
    {
      "anonymous": false,
      "inputs": [
        {
          "indexed": false,
          "name": "description",
          "type": "string"
        },
        {
          "indexed": false,
          "name": "to",
          "type": "address"
        },
        {
          "indexed": false,
          "name": "taskId",
          "type": "uint256"
        },
        {
          "indexed": false,
          "name": "claimId",
          "type": "uint256"
        },
        {
          "indexed": false,
          "name": "claimOwner",
          "type": "address"
        },
        {
          "indexed": false,
          "name": "from",
          "type": "address"
        }
      ],
      "name": "TaskCreated",
      "type": "event"
    },
    {
      "anonymous": false,
      "inputs": [
        {
          "indexed": false,
          "name": "description",
          "type": "string"
        },
        {
          "indexed": false,
          "name": "to",
          "type": "address"
        },
        {
          "indexed": false,
          "name": "taskId",
          "type": "uint256"
        },
        {
          "indexed": false,
          "name": "claimId",
          "type": "uint256"
        },
        {
          "indexed": false,
          "name": "claimOwner",
          "type": "address"
        },
        {
          "indexed": false,
          "name": "from",
          "type": "address"
        }
      ],
      "name": "TaskUpdated",
      "type": "event"
    },
    {
      "constant": false,
      "inputs": [
        {
          "name": "_userAddresses",
          "type": "address[]"
        }
      ],
      "name": "emitAddressAdded",
      "outputs": [],
      "payable": false,
      "stateMutability": "nonpayable",
      "type": "function"
    },
    {
      "constant": false,
      "inputs": [
        {
          "name": "_name",
          "type": "string"
        },
        {
          "name": "_author",
          "type": "string"
        },
        {
          "name": "_description",
          "type": "string"
        },
        {
          "name": "_assetId",
          "type": "uint256"
        },
        {
          "name": "_assetOwner",
          "type": "address"
        }
      ],
      "name": "emitAssetCreated",
      "outputs": [],
      "payable": false,
      "stateMutability": "nonpayable",
      "type": "function"
    },
    {
      "constant": false,
      "inputs": [
        {
          "name": "_name",
          "type": "string"
        },
        {
          "name": "_author",
          "type": "string"
        },
        {
          "name": "_description",
          "type": "string"
        },
        {
          "name": "_assetId",
          "type": "uint256"
        },
        {
          "name": "_assetOwner",
          "type": "address"
        }
      ],
      "name": "emitAssetUpdated",
      "outputs": [],
      "payable": false,
      "stateMutability": "nonpayable",
      "type": "function"
    },
    {
      "constant": false,
      "inputs": [
        {
          "name": "_assetId",
          "type": "uint256"
        },
        {
          "name": "_assetOwner",
          "type": "address"
        },
        {
          "name": "_description",
          "type": "string"
        },
        {
          "name": "_claimId",
          "type": "uint256"
        },
        {
          "name": "_claimOwner",
          "type": "address"
        }
      ],
      "name": "emitClaimCreated",
      "outputs": [],
      "payable": false,
      "stateMutability": "nonpayable",
      "type": "function"
    },
    {
      "constant": false,
      "inputs": [
        {
          "name": "_assetId",
          "type": "uint256"
        },
        {
          "name": "_assetOwner",
          "type": "address"
        },
        {
          "name": "_description",
          "type": "string"
        },
        {
          "name": "_claimId",
          "type": "uint256"
        },
        {
          "name": "_claimOwner",
          "type": "address"
        }
      ],
      "name": "emitClaimUpdated",
      "outputs": [],
      "payable": false,
      "stateMutability": "nonpayable",
      "type": "function"
    },
    {
      "constant": false,
      "inputs": [
        {
          "name": "_description",
          "type": "string"
        },
        {
          "name": "_to",
          "type": "address"
        },
        {
          "name": "_taskId",
          "type": "uint256"
        },
        {
          "name": "_claimId",
          "type": "uint256"
        },
        {
          "name": "_claimOwner",
          "type": "address"
        },
        {
          "name": "_from",
          "type": "address"
        }
      ],
      "name": "emitTaskCreated",
      "outputs": [],
      "payable": false,
      "stateMutability": "nonpayable",
      "type": "function"
    },
    {
      "constant": false,
      "inputs": [
        {
          "name": "_description",
          "type": "string"
        },
        {
          "name": "_to",
          "type": "address"
        },
        {
          "name": "_taskId",
          "type": "uint256"
        },
        {
          "name": "_claimId",
          "type": "uint256"
        },
        {
          "name": "_claimOwner",
          "type": "address"
        },
        {
          "name": "_from",
          "type": "address"
        }
      ],
      "name": "emitTaskUpdated",
      "outputs": [],
      "payable": false,
      "stateMutability": "nonpayable",
      "type": "function"
    }
  ],
  "bytecode": "0x608060405234801561001057600080fd5b50610a90806100206000396000f3006080604052600436106100825763ffffffff7c0100000000000000000000000000000000000000000000000000000000600035041663057241de811461008757806335afc10e1461016f5780638837b1e5146101c45780638f483bd9146102435780639db4aecc146102bd578063e54915891461033c578063f16bdc66146103b6575b600080fd5b34801561009357600080fd5b506040805160206004803580820135601f810184900484028501840190955284845261016d94369492936024939284019190819084018382808284375050604080516020601f89358b018035918201839004830284018301909452808352979a99988101979196509182019450925082915084018382808284375050604080516020601f89358b018035918201839004830284018301909452808352979a9998810197919650918201945092508291508401838280828437509497505084359550505050602090910135600160a060020a0316905061049c565b005b34801561017b57600080fd5b506040805160206004803580820135838102808601850190965280855261016d9536959394602494938501929182918501908490808284375094975061062c9650505050505050565b3480156101d057600080fd5b506040805160206004803580820135601f810184900484028501840190955284845261016d94369492936024939284019190819084018382808284375094975050600160a060020a0385358116965060208601359560408101359550606081013582169450608001351691506106a49050565b34801561024f57600080fd5b50604080516020600460443581810135601f810184900484028501840190955284845261016d9482359460248035600160a060020a0316953695946064949201919081908401838280828437509497505084359550505050602090910135600160a060020a031690506107a3565b3480156102c957600080fd5b506040805160206004803580820135601f810184900484028501840190955284845261016d94369492936024939284019190819084018382808284375094975050600160a060020a0385358116965060208601359560408101359550606081013582169450608001351691506108879050565b34801561034857600080fd5b50604080516020600460443581810135601f810184900484028501840190955284845261016d9482359460248035600160a060020a0316953695946064949201919081908401838280828437509497505084359550505050602090910135600160a060020a0316905061093e565b3480156103c257600080fd5b506040805160206004803580820135601f810184900484028501840190955284845261016d94369492936024939284019190819084018382808284375050604080516020601f89358b018035918201839004830284018301909452808352979a99988101979196509182019450925082915084018382808284375050604080516020601f89358b018035918201839004830284018301909452808352979a9998810197919650918201945092508291508401838280828437509497505084359550505050602090910135600160a060020a031690506109dc565b7f8caac17cb6aff837a2e971abc4704adda1e4a380438d832aad7ed0bffda0f56585858585856040518080602001806020018060200186815260200185600160a060020a0316600160a060020a03168152602001848103845289818151815260200191508051906020019080838360005b8381101561052557818101518382015260200161050d565b50505050905090810190601f1680156105525780820380516001836020036101000a031916815260200191505b5084810383528851815288516020918201918a019080838360005b8381101561058557818101518382015260200161056d565b50505050905090810190601f1680156105b25780820380516001836020036101000a031916815260200191505b50848103825287518152875160209182019189019080838360005b838110156105e55781810151838201526020016105cd565b50505050905090810190601f1680156106125780820380516001836020036101000a031916815260200191505b509850505050505050505060405180910390a15050505050565b7f8eb4b62a1798809c1cb1593bc979eb7708ee201600022292993f69de3397e5c7816040518080602001828103825283818151815260200191508051906020019060200280838360005b8381101561068e578181015183820152602001610676565b505050509050019250505060405180910390a150565b7fddd8f6b044a02919cb2984516a4ba92db084d3c3a7a8cb94dff4d5bfcfd1af94868686868686604051808060200187600160a060020a0316600160a060020a0316815260200186815260200185815260200184600160a060020a0316600160a060020a0316815260200183600160a060020a0316600160a060020a03168152602001828103825288818151815260200191508051906020019080838360005b8381101561075c578181015183820152602001610744565b50505050905090810190601f1680156107895780820380516001836020036101000a031916815260200191505b5097505050505050505060405180910390a1505050505050565b7fb751dee9374192e29921410d6da67a9ba207ae8ebb91aede65faeaa45488260a85858585856040518086815260200185600160a060020a0316600160a060020a031681526020018060200184815260200183600160a060020a0316600160a060020a03168152602001828103825285818151815260200191508051906020019080838360005b8381101561084257818101518382015260200161082a565b50505050905090810190601f16801561086f5780820380516001836020036101000a031916815260200191505b50965050505050505060405180910390a15050505050565b7fa0d836f564079342c26a5ce81c0eefcbe66b7d7756a00d2eac3459292bf60dc6868686868686604051808060200187600160a060020a0316600160a060020a0316815260200186815260200185815260200184600160a060020a0316600160a060020a0316815260200183600160a060020a0316600160a060020a03168152602001828103825288818151815260200191508051906020019080838360008381101561075c578181015183820152602001610744565b7f197d9b1594a2403e0d4b1491986a666c6d55a6ce0672093fb1d3833135ffb40285858585856040518086815260200185600160a060020a0316600160a060020a031681526020018060200184815260200183600160a060020a0316600160a060020a03168152602001828103825285818151815260200191508051906020019080838360008381101561084257818101518382015260200161082a565b7f19bbb2845ab9de88110296b06cfdb97d64575e7510c8da2b45b4d971f1dc7dd185858585856040518080602001806020018060200186815260200185600160a060020a0316600160a060020a03168152602001848103845289818151815260200191508051906020019080838360008381101561052557818101518382015260200161050d5600a165627a7a723058207512281e30c79d0fe098dc66a3e1fe174b5d0d9cda0a857b8c97c0909df60c300029",
  "source": "pragma solidity ^0.4.22;\n\ncontract EventManager {\n\n    event AddressAdded(address[] userAddresses);\n\n    event AssetCreated(string name, string author, string description, uint256 assetId, address assetOwner);\n    event AssetUpdated(string name, string author, string description, uint256 assetId, address assetOwner);\n\n    event ClaimCreated(uint256 assetId, address assetOwner, string description, uint256 claimId, address claimOwner);\n    event ClaimUpdated(uint256 assetId, address assetOwner, string description, uint256 claimId, address claimOwner);\n\n    event TaskCreated(string description, address to, uint256 taskId, uint256 claimId, address claimOwner, address from);\n    event TaskUpdated(string description, address to, uint256 taskId, uint256 claimId, address claimOwner, address from);\n\n    function emitAddressAdded(address[] _userAddresses) public {\n        emit AddressAdded(_userAddresses);\n    }\n\n    function emitAssetCreated(string _name, string _author, string _description, uint256 _assetId, address _assetOwner) public {\n        emit AssetCreated(_name, _author, _description, _assetId, _assetOwner);\n    }\n\n    function emitAssetUpdated(string _name, string _author, string _description, uint256 _assetId, address _assetOwner) public {\n        emit AssetUpdated(_name, _author, _description, _assetId, _assetOwner);\n    }\n\n    function emitClaimCreated(uint256 _assetId, address _assetOwner, string _description, uint256 _claimId, address _claimOwner) public {\n        emit ClaimCreated(_assetId, _assetOwner, _description, _claimId, _claimOwner);\n    }\n\n    function emitClaimUpdated(uint256 _assetId, address _assetOwner, string _description, uint256 _claimId, address _claimOwner) public {\n        emit ClaimUpdated(_assetId, _assetOwner, _description, _claimId, _claimOwner);\n    }\n\n    function emitTaskCreated(string _description, address _to, uint256 _taskId, uint256 _claimId, address _claimOwner, address _from) public {\n        emit TaskCreated(_description, _to, _taskId, _claimId, _claimOwner, _from);\n    }\n\n    function emitTaskUpdated(string _description, address _to, uint256 _taskId, uint256 _claimId, address _claimOwner, address _from) public {\n        emit TaskUpdated(_description, _to, _taskId, _claimId, _claimOwner, _from);\n    }\n\n}\n",
  "sourcePath": "/home/jordi/ws/bloomen-registry-claim-prototype/ethereum/contracts/EventManager.sol",
  "compiler": {
    "name": "solc",
    "version": "0.4.24+commit.e67f0147.Emscripten.clang"
  },
  "schemaVersion": "2.0.1",
  "updatedAt": "2019-01-09T13:49:51.673Z"
}